:0E08FE00E4FFFE0FBF00010EBE13F8BF88F529
:01090C0022C8
:1008D700C2B61208FED2B620B2FDC2B71208FEAFEA
:0308E70090D2B7F5
:0108EA0022EB
:1008EB0053890F438920758DFD759850D28EC2990F
:0308FB00C298227E
:080919008F993099FDC299226B
:1008B2008B0C8A0D890EAB0CAA0DA90E12080060D2
:1008C20013050EE50E7002050D14F9120800FF1251
:0508D200091980E2227B
:10084D00900003E412082BEF75F00A84E5F02430D4
:10085D0090000212082BEF75F00A84FF75F00A84E0
:10086D00E5F0243090000112082BEF75F00A847525
:0A087D00F00A84E5F02430020819A7
:100887007590FFE4F5A01208EB1208D7AD078DA00D
:100897007B007A00790812084D1208B27F0D120901
:0B08A700197F0A1209191208FE80DEFA
:0300000002090DE5
:0C090D00787FE4F6D8FD75810E020887A3
:10080000BB010689828A83E0225002E722BBFE02F6
:09081000E32289828A83E4932229
:10081900BB010689828A83F0225002F722BBFE01BE
:02082900F322B8
:10082B00F8BB010DE58229F582E5833AF583E8F003
:10083B00225006E92582C8F622BBFE05E92582C8AF
:02084B00F22297
:00000001FF
